:100000000C94CC000C94B7090C9490090C946909D9
:100010000C9442090C94F4000C94F4000C941B0909
:100020000C94F4000C94F00C0C9430060C949F0685
:100030000C94F4000C94F4000C94F4000C94F40070
:100040000C94F4000C94F4000C94F4000C94F40060
:100050000C94F4000C94F4000C94F4000C94D1086B
:100060000C94F4000C94F4000C94F4000C94F40040
:100070000C94F4000C94F4000C94F4000C94F40030
:100080000C94F4000C94F4000C94F4000C94F40020
:100090000C94DE090C94F4000C94F4000C94F4001D
:1000A0000C94F4000C94F90A0C94F4000000000085
:1000B000250028002B002E00310004040404040352
:1000C00004050202020204030202020206060606F8
:1000D000060604040202020404040802011040801F
:1000E000401020408040800802040180402010021F
:1000F00001108010204040200000000200090F0085
:1001000000030401000C00000000000000000000DB
:1001100000000000000000080B00020202000009BD
:100120000400000102020000052400100105240162
:1001300001010424020605240600010705810310BD
:10014000004009040100020A000000070502024005
:1001500000000705830240000004030904120100A7
:1001600002EF020140FB1F002300010102030150C6
:100170006F6C6F6C7520436F72706F726174696F12
:100180006E00506F6C6F6C7520412D53746172203E
:100190003332553400003B0D11241FBECFEFDAE09F
:1001A000DEBFCDBF11E0A0E0B1E0E8E4F2E202C0C2
:1001B00005900D92A235B107D9F722E0A2E5B1E092
:1001C00001C01D92AD35B207E1F710E0CCECD0E0F4
:1001D00004C02197FE010E940211CB3CD107C9F750
:1001E0000E94500D0C9422110C940000FC0180918F
:1001F0000C02882311F13FB7F89482E08093E90064
:100200002091F200822F90E01816190614F481E074
:1002100090E0882339F0289844E640930B024091FF
:10022000F1004083222339F02091F200211103C014
:100230002BE62093E8003FBF08958FEF9FEF0895CE
:100240002FB7F89483E08093E9009091E800892F1C
:10025000807295FF04C09091F20080E4891B2FBF4B
:1002600008958091030281110DC082E08093FF0107
:1002700084E080930002109202021092010281E059
:10028000809303028FEF91E00895CF93DF931F9245
:10029000CDB7DEB76983DC01ED91FC910280F3817B
:1002A000E02D41E050E0BE016F5F7F4F09950F9058
:1002B000DF91CF91089583E08093E9008091F2006F
:1002C000882319F08AE38093E80008950E942001B2
:1002D00090E00895CF93DF931F92CDB7DEB7FC0176
:1002E0008485958597FD08C02FEF3FEF35872487DC
:1002F0000F90DF91CF910895CE0101960E94F600F4
:10030000019719F4898190E0F3CF8FEF9FEFF0CF41
:100310000F931F93CF93DF931F92CDB7DEB78C015E
:10032000FC018485958597FF0BC0CE0101960E9444
:10033000F600019771F4898190E0F8019587848730
:10034000F801848595850F90DF91CF911F910F91D2
:1003500008958FEF9FEFF1CFFC018485958597FD80
:100360000BC09FB7F89482E08093E9008091F2007F
:100370009FBF90E0019608959FB7F89482E0809324
:10038000E9008091F2009FBF90E008954091F9014B
:100390005091FA012091F7013091F801421753076B
:1003A000B4F49091E8009570E1F39091E80092FD2B
:1003B00019C08093F1008091F9019091FA010196A2
:1003C0008F739927892B19F48EEF8093E800809121
:1003D000F9019091FA0101969093FA018093F90145
:1003E00081E0089580E00895EF92FF920F931F93AC
:1003F000CF93DF93F82E192FE62E042F81E0860F7E
:10040000880F0E94C60183E00E94C601CF2DD12F24
:10041000EC0EFD2EF11CCE15DF05B9F007FF13C061
:10042000FE0184910E94C601182F80E00E94C6013F
:10043000812321968111EFCFDF91CF911F910F91F1
:10044000FF90EF9008958881EDCF81E0F5CFDF92A6
:10045000EF92FF920F931F93CF93DF93D82E8A01D1
:10046000EB017B01E40EF51ECE15DF0559F0D7FE3A
:1004700012C0FE0184910E94C60121968111F4CF21
:100480000FEF1FEFC801DF91CF911F910F91FF90E8
:10049000EF90DF9008958881EECF0F931F93CF9355
:1004A000DF931F92CDB7DEB782E0898342E450E04C
:1004B00067E171E080E80E9427020E943101DC01BF
:1004C00012960D911C910115110589F0D801ED913D
:1004D000FC910280F381E02DBE016F5F7F4FC80168
:1004E000099597FD04C0F80100851185ECCF89813D
:1004F0000F90DF91CF911F910F910895615030F0CF
:100500002091F100FC0120830196F8CF289884E621
:1005100080930B020895282F30E0F901E850FF4F37
:100520009491F901E752FF4F849126543F4FF9010E
:100530002491222309F430C09923E9F091509F308F
:10054000D0F4E92FF0E0E955FD4F0C940211D502EB
:10055000D902B602CD02D102BB02BB02BB02DC0251
:10056000E202E602EA02F002BB02F402909180008D
:100570009F7790938000E22FF0E0EE0FFF1FE4558D
:10058000FF4FA591B4919FB7F894EC91611132C0DF
:1005900080958E238C939FBF0895909180009F7DBE
:1005A000E8CF90918000977FE4CF94B59F7794BD7A
:1005B000E2CF94B59F7DFBCF909190009F77909371
:1005C0009000D9CF909190009F7DF9CF90919000AD
:1005D000977FF5CF9091C0009F779093C000CBCFCD
:1005E0009091C0009F7DF9CF9091C200977F90932A
:1005F000C200C1CF8E2BCECF3FB7F8948091F301CC
:100600009091F401A091F501B091F60126B5A89B57
:1006100005C02F3F19F00196A11DB11D3FBFBA2F94
:10062000A92F982F8827BC01CD01620F711D811D54
:10063000911D42E0660F771F881F991F4A95D1F7D9
:100640000895CF92DF92EF92FF920E94FC026B011D
:100650007C010E94FC026C197D098E099F09683E8D
:10066000734081059105A8F3FF90EF90DF90CF9044
:1006700008958F929F92AF92BF92CF92DF92EF92A6
:10068000FF920F931F93CF93DF936C017B018A013D
:1006900080911F01882309F458C080910C0288239F
:1006A00009F453C08091FE0180FF05C08091E000F5
:1006B00082608093E000E801B12C8AEFA82E93E0DD
:1006C000892E2AE3922E209711F4BB20B9F10E94C3
:1006D0002001811106C0AA94AA20B9F10E94210329
:1006E000F2CF8C171D0611F00CF08C2F9FB7F894E9
:1006F0008092E9002091E80025FD02C09FBFE3CF72
:10070000282F30E0C21BD30BF701815020F041911C
:100710004093F100FACFE20EF31EBB2021F090923D
:10072000E800B12CEBCF8091E80085FDE7CF9092F7
:10073000E800BB24B394209709F3F3CF5D9884E6D7
:100740008093FD01101611063CF081E090E0F60167
:100750009383828310E000E0C801DF91CF911F9165
:100760000F91FF90EF90DF90CF90BF90AF909F9050
:100770008F900895089520918A01260F3327331F03
:1007800021323105ECF42091AE01FC0190E080E0D3
:10079000243069F082E00895A0918A012191AC0192
:1007A00046595E4FA40FB52FB11D2C9301968617A5
:1007B00098F380918A01680F60938A0180E0089520
:1007C00081E0089508958FEF9FEF08958FEF9FEFD9
:1007D00008958091630190E0919581959109089524
:1007E000CF93DF93CB01EA01642F0E94BB03CE01BC
:1007F000DF91CF910895CF93DF931F92CDB7DEB7EE
:10080000698361E0CE0101960E94BB0381E090E024
:100810000F90DF91CF91089590E080E0089580914E
:100820006001E0916101F0916201882339F08491C7
:100830009FEB980F9A3120F4805E08958081F8CF65
:10084000803269F42091610130916201A9014F5F0A
:100850005F4F5093620140936101232B01F708958C
:100860001F93CF93DF930E940F04D0E0C0E01AE003
:1008700090ED980F9A30B8F41C9F90011D9F300D99
:100880001124E901C80FD11D87FDDA95E097809109
:1008900061019091620101969093620180936101E0
:1008A0000E940F04E5CFCE01DF91CF911F910895F3
:1008B0003F924F925F926F927F928F929F92AF92F0
:1008C000BF92CF92DF92EF92FF920F931F93CF933D
:1008D000DF937B01D42E20915D0121111BC021E00B
:1008E00020935D01109272001092C00034E03093AA
:1008F000C10039E03093C2002093C30023E020936D
:10090000BF0028EE2093D1001092BF001092D200B9
:10091000579A789410920901CC24C39497FF03C08E
:100920009F77AAE0CA2EC8E2CC9EC02D1124D0E049
:100930008C179D0750F021E0EC01C21206C0C131B6
:1009400087E2D80710F0C0E1D7E24E01B12CA12C0C
:100950004C2C512C712C612C9E01AFEFB7E00E9402
:100960000811640D751D861D971D969587957795C1
:100970006795A30192010E94C11060E072E18AE7CD
:1009800090E0312C3394621773078407950728F0A1
:100990009695879577956795F5CFA30192010E946B
:1009A00091109E0136952795620F731F811D911D31
:1009B000A50194010E94C110722E022F132F2AE06C
:1009C000C21207C0CE0105966AE070E00E94AD1029
:1009D000EB01C83E83E0D80759F09701DE010E9481
:1009E000081128EE33E040E050E00E94E310790166
:1009F000109272008091C100807F83298093C10092
:100A00001093BF007092D1004D2D403108F04FE09F
:100A100080E190E0841B910902C0169507958A95A4
:100A2000E2F71093BF000093D200F0925F01E092D2
:100A30005E0189B38FEF89BB84E080937200DF9100
:100A4000CF911F910F91FF90EF90DF90CF90BF90CB
:100A5000AF909F908F907F906F905F904F903F905E
:100A600008952E98269A2D98259A2A98229A2998A0
:100A7000219A80EA8093800081E18093810080E95F
:100A800091E09093870080938600109289001092E5
:100A9000880010928B0010928A0008959FB1917087
:100AA0008CB186FB882780F98927209156013091E7
:100AB0005501409153015091540128273927231B98
:100AC000330B240F351F3093540120935301309181
:100AD000550120915601381729F0291719F021E006
:100AE00020935201809355019093560108952498C4
:100AF0002C9A6A98729A6E98769A8098889A81E071
:100B00008093680090E190936B008BBB8EE495E03E
:100B10009093130180931201EAE6F0E080818F7CCC
:100B200080618083EE9A8CB182FB882780F9809364
:100B3000590193B1809159019295917089278093C1
:100B400058011092D7011092D601109257018FB11F
:100B50008170809356019CB18091560196FB992734
:100B600090F98927809355011092540110925301F6
:100B70001092520108951F93CF93DF9385ED8093D8
:100B8000BC008091660190916701A0916801B091CD
:100B900069010796A11DB11D23E0B695A79597950C
:100BA00087952A95D1F72091BC0024FD03C01092AF
:100BB000AE0152C040916601509167016091680199
:100BC00070916901452B462B472B69F30097A105CE
:100BD000B10541F02AE22A95F1F700C00197A10979
:100BE000B109E1CF80916501C1E0C0936401882320
:100BF00099F1D091B8001091BA008091BC008A7B25
:100C00008093BC0060E082E00E948B0260E083E0A1
:100C10000E948B021092AE01C093B0011092AF01FE
:100C200061E082E00E948B0261E083E00E948B021F
:100C30008091B9008E7F8093B9008091B9008D7F3B
:100C40008093B90088E48093B80085E48093BC0069
:100C50001093BA00D093B800DF91CF911F910895FF
:100C60001F920F920FB60F9211248F939F93809132
:100C7000E1009091E100937F9093E10083FF0FC02A
:100C80001092E90091E09093EB001092EC0092E357
:100C90009093ED0010920C0298E09093F00082FF88
:100CA00022C093E09093E9009091F200992319F00B
:100CB0009AE39093E8009091FD01992341F090917F
:100CC000FD0191509093FD01911101C05D9A9091A9
:100CD0000B02992341F090910B02915090930B02DB
:100CE000911101C0289A84FF18C08091E2008E7E85
:100CF00081608093E2008091E1008F7E8093E1002B
:100D00008091FE018E7E80618093FE019F918F9184
:100D10000F900FBE0F901F90189580FFF7CF809116
:100D2000E2008E7E80618093E2008091E1008E7E01
:100D30008093E1008091FE018E7E8160E5CF1F925D
:100D40000F920FB60F921124CF92DF92EF92FF9283
:100D50000F931F932F933F934F935F936F937F93C3
:100D60008F939F93AF93BF93EF93FF93CF93DF93B3
:100D7000CDB7DEB76C97DEBFCDBF1092E900809192
:100D8000E80083FF25C068E0CE0145960E947E0200
:100D900082EF8093E8008D8987FF39C09091E80049
:100DA00090FFFCCF982F907609F034C19E894F892F
:100DB000588D2F89F88C911131C0803861F5809160
:100DC000FC018093F1001092F1008EEF8093E80017
:100DD0006C960FB6F894DEBF0FBECDBFDF91CF91FA
:100DE000FF91EF91BF91AF919F918F917F916F9103
:100DF0005F914F913F912F911F910F91FF90EF9035
:100E0000DF90CF900F900FBE0F901F9018959EEF20
:100E10009093E800C7CF1092F100D5CF913059F4EC
:100E20008111D3CF4130510581F68091FC018D7F36
:100E30008093FC01CACF933049F48111C6CF413071
:100E4000510519F68091FC018260F2CF953041F492
:100E50008091E80080FFFCCF20682093E300B5CFAD
:100E6000963009F0A9C00B8D1C8D22E01092E9008C
:100E70001092FA011092F901F2122EC01092F801AC
:100E80001092F7010E944D021F8299E09983FA8225
:100E900091E09E8390EA98879AEF99872091F901D3
:100EA0003091FA01275F3F4F3C832B838D83109253
:100EB000E9001092FA011092F9011093F8010093E1
:100EC000F70149E050E0BE016F5F7F4F80E00E9474
:100ED00027020E944D0279CF1093F8010093F70189
:100EE0000E943101DC0112960D911C910115110532
:100EF00009F451C1D801ED91FC910480F581E02DF8
:100F0000BE016B5E7F4FC8010995009709F03EC195
:100F1000F80100851185EACFF3E0FF120EC08F893A
:100F2000882309F440C0823061F440E862E182E83D
:100F300091E00E94F401811148CF81E28093EB009F
:100F400047CF813029F440E862E18FE691E0F1CFAC
:100F5000833099F70E943101DC011296ED90FC90EC
:100F60008E010F5F1F4F6801E114F10479F0D70182
:100F7000ED91FC910680F781E02DB801C70109953C
:100F8000080F111DF701E084F184EECFD8011C9207
:100F9000F60101900020E9F73197BF016C197D0936
:100FA00040E0C601C6CF69E571E0FB01449150E025
:100FB00080E80E94270209CF973009F4BECF98300D
:100FC00021F481E08093F10000CF993009F0FDCE4B
:100FD000837009F0B2CFE9E3F1E081E031E096E31C
:100FE0002191222371F08093E9003093EB00DF011F
:100FF00011972C912093EC009093ED008F5F873038
:1010000079F78EE78093EA001092EA008F89809347
:101010000C02DBCE8B8D9C8D1092E9001092FA01B0
:101020001092F9019093F8018093F701898D811155
:1010300092C08E899D89913A49F4813209F07DCF21
:1010400047E050E068E171E080E0B3CF913209F011
:1010500074CF833269F48F89988DB0E0A0E08093DB
:10106000140190931501A0931601B0931701ADCE12
:10107000803269F48091E80082FFFCCF67E088E16C
:1010800091E00E947E028BEF8093E8009ECE823238
:1010900009F09BCE8F8980931F01EEEFFFE78591CA
:1010A00094918B3F9C4D51F1E0E0F8E08091180164
:1010B00090911901A0911A01B0911B01803B9440BD
:1010C000A105B105F1F480911F0180FD1AC0EE3F2A
:1010D0008AE0F80789F587E797E791838083809115
:1010E00060008093FB0188E19BE00FB6F894A8951F
:1010F000809360000FBE9093600067CEEEEFFAE041
:10110000D5CF808191818737974709F05ECEA8952A
:10111000809160008861809360008091FB018093E2
:101120006000EE3F2AE0F20789F08091FE0A90917C
:10113000FF0A9183808349CE808191818737980708
:1011400051F29093FF0A8093FE0AC5CF1092FF0AD6
:101150001092FE0A3ACE0E943101DC0112960D91E6
:101160001C910115110509F4E8CED801ED91FC910F
:101170000190F081E02DBE016B5E7F4FC8010995A3
:10118000811123CEF80100851185EBCF18161906C1
:101190000CF41BCED2CEF1E0FF12BECE6DE571E0B5
:1011A00004CF1F920F920FB60F9211242F933F93EB
:1011B0008F939F93AF93BF938091EF019091F00134
:1011C000A091F101B091F2013091EE0123E0230FE3
:1011D0002D3758F50196A11DB11D2093EE01809386
:1011E000EF019093F001A093F101B093F20180918F
:1011F000F3019091F401A091F501B091F6010196EF
:10120000A11DB11D8093F3019093F401A093F5010A
:10121000B093F601BF91AF919F918F913F912F9124
:101220000F900FBE0F901F90189526E8230F02967F
:10123000A11DB11DD2CF1F920F920FB60F92112494
:101240002F933F934F935F936F937F938F939F93CE
:10125000AF93BF93EF93FF93E0911201F0911301CD
:101260000995FF91EF91BF91AF919F918F917F91E0
:101270006F915F914F913F912F910F900FBE0F9003
:101280001F9018951F920F920FB60F9211242F9353
:101290003F934F935F936F937F938F939F93AF93FE
:1012A000BF93EF93FF93E0911001F0911101099525
:1012B000FF91EF91BF91AF919F918F917F916F912E
:1012C0005F914F913F912F910F900FBE0F901F9004
:1012D00018951F920F920FB60F9211242F933F93E0
:1012E0004F935F936F937F938F939F93AF93BF932E
:1012F000EF93FF93E0910E01F0910F010995FF919B
:10130000EF91BF91AF919F918F917F916F915F917D
:101310004F913F912F910F900FBE0F901F901895F6
:101320001F920F920FB60F9211242F933F934F935A
:101330005F936F937F938F939F93AF93BF93EF933D
:10134000FF93E0910C01F0910D010995FF91EF9150
:10135000BF91AF919F918F917F916F915F914F91CD
:101360003F912F910F900FBE0F901F9018951F92D5
:101370000F920FB60F9211242F933F934F935F93C9
:101380006F937F938F939F93AF93BF93EF93FF934D
:10139000E0910A01F0910B010995FF91EF91BF9146
:1013A000AF919F918F917F916F915F914F913F91FD
:1013B0002F910F900FBE0F901F9018951F920F92B4
:1013C0000FB60F9211242F933F934F935F936F9318
:1013D0007F938F939F93AF93BF93EF93FF938091EE
:1013E000B900887F803609F44AC0F0F5883209F4E4
:1013F000A5C018F5803109F499C0B8F4882309F420
:10140000F5C0883009F492C0FF91EF91BF91AF9180
:101410009F918F917F916F915F914F913F912F910C
:101420000F900FBE0F901F901895883109F486C059
:10143000803251F78093AD0114C0803409F49BC011
:1014400040F48033B9F38833F9F68093AD0185EC2D
:10145000AEC0803509F483C0883509F494C088345F
:1014600099F60E94BB05D0CF883909F48AC038F5B7
:10147000883729F050F4883611F0803729F683E058
:101480008093AE011092AC0155C0883809F479C040
:10149000803919F0803809F0B7CF8091AC018032E3
:1014A00008F06FC0E091AC0181E08E0F8093AC0139
:1014B0008091BB00F0E0E457FE4F80833BC0803B4F
:1014C00039F0D0F4803A09F477C0883A09F09CCF1B
:1014D00084E08093AE0110928B0110928A01F0E0BB
:1014E000E0E0099580918A0181110FC081E080932D
:1014F0008A0110926A0109C0803C09F4A8CF883C97
:1015000009F4A5CF883B09F07FCFE0918B0181E002
:101510008E0F80938B01F0E0E659FE4F808180931F
:10152000BB0090918B0180918A0129C08091D301E9
:101530008093BB0085EC8093BC0066CF9091D20174
:101540008091D101981758F5E091D20181E08E0F7A
:101550008093D201F0E0EF54FE4F8081E9CFE0911B
:10156000D20181E08E0F8093D2018091BB00F0E028
:10157000EF54FE4F80839091D2018091D101981752
:10158000C8F285E8D8CFE091D20181E08E0F809338
:10159000D2018091BB00F0E0EF54FE4F8083809138
:1015A000B00181115ECF81E08093AF0184EA809326
:1015B000BC001092AE0128CF85EC8093BC00109245
:1015C000AE018091AC01803230F4E091AC01F0E0EA
:1015D000E457FE4F10826091AC0170E08CE891E01E
:1015E000F0E0E0E009951092AC010ECF1092AD0151
:1015F00038CF1F920F920FB60F9211244F925F9225
:101600006F927F928F929F92AF92BF92CF92DF9212
:10161000EF92FF920F931F932F933F934F935F93FC
:101620006F937F938F939F93AF93BF93CF93DF93EA
:10163000EF93FF93C0915E01D0915F01CE010197BE
:1016400090935F0180935E012097A1F51092720044
:1016500078948091C100807F84608093C10083E092
:101660008093BF0088EE8093D1001092BF0010924B
:10167000D20081E080930901809161019091620123
:10168000892BC1F080915C01811114C07090080118
:1016900080915B01882379F180915A01882359F167
:1016A00060915A0170E040E088EE93E00E94580497
:1016B00010925A01FF91EF91DF91CF91BF91AF91BD
:1016C0009F918F917F916F915F914F913F912F915A
:1016D0001F910F91FF90EF90DF90CF90BF90AF9050
:1016E0009F908F907F906F905F904F900F900FBE64
:1016F0000F901F9018955524539470ECA72E7DE5FC
:10170000B72EEAE04E2EF4E06F2EA0EDCA2EA7E031
:10171000DA2EB4E0EB2EF12C04EF11E08FE0882EEE
:10172000912C0E940F0420916101309162012F5F82
:101730003F4F3093620120936101853609F473C0F5
:101740000CF047C0813609F4B4C024F58C3309F499
:1017500068C08E3309F463C0813209F043C06092DF
:101760000801D0920501C0920401F0920701E092B5
:1017700006011093030100930201909201018092EF
:10178000000110925B01709008018091020190911C
:101790000301C7CF833609F48FC010E00BE0843615
:1017A00014F010E002E04CE0749E000D11240E9441
:1017B0000F04982F977F933209F080C080916101C8
:1017C00090916201019690936201809361010F5F95
:1017D000EECF8D3609F445C054F4873651F134F11B
:1017E0008C3651F1109262011092610163CF823701
:1017F00009F44CC044F48F36A9F70E943004782EC7
:10180000809308018ECF843709F443C0863751F79F
:101810000E943004909301018093000182CF739461
:1018200080CF7A947ECF10E004E0BDCF10E005E0D9
:10183000BACF10E007E0B7CF0E94300490930701C1
:101840008093060180910401909105016091060149
:10185000709107010E94AD10709303016093020123
:1018600060CF0E940F048C3661F410925B0180916E
:1018700061019091620101969093620180936101F0
:1018800050CF50925B0110925A01F1CF11E000E06D
:101890008ACF0E943004BC01C5010E94AD10469E53
:1018A000C001479E900D112490930501809304017F
:1018B000C9CF10E009E077CF10E0E9CF8D3269F4AD
:1018C00080916101909162010196909362018093F1
:1018D000610101500E940F04F1CFE0900201F090ED
:1018E00003018153883058F4E0900401F090050121
:1018F0000E943004BC01C7010E94AD107B0167014A
:10190000D694C7940E940F048E3261F480916101D5
:101910009091620101969093620180936101EC0CB9
:10192000FD1CEECF80915B01882349F0C70196959D
:10193000879580935A0180915A01E81AF108C09066
:101940000001D0900101111104C00F3F11F0C1102E
:1019500007C040E0B70188EE93E00E945804AACE89
:10196000013128F010EF100F103608F01FE5812F1D
:101970006CE00E94A110582F44EF45039001112400
:10198000210F311D2C30310538F4220F331FF9019E
:10199000E05EFE4FC081D1818730C1F0082E02C0C9
:1019A000CC0FDD1F0A94E2F7823040F0CE0105969D
:1019B0006AE070E00E94AD10CB0102C0CE019058E9
:1019C0004C2D403108F04FE0B701C7CFCE0126E0E3
:1019D000880F991F2A95E1F7029665E070E0EACF3B
:1019E0001F920F920FB60F9211242F933F934F9394
:1019F0006F937F938F939F938CB1282F30E0359511
:101A0000279535952795422F417083B190E064E08A
:101A1000959587956A95E1F7822781702091590104
:101A2000909158016091D6017091D7012827942791
:101A3000291B330B260F371F3093D7012093D60174
:101A40002091580190915901281729F0941719F005
:101A500091E09093570180935801409359019F91D1
:101A60008F917F916F914F913F912F910F900FBE6A
:101A70000F901F901895EDE0F2E01382128288EE2D
:101A800093E0A0E0B0E084839583A683B78383E4EA
:101A900091E0918380838FEF9FEF958784870895EE
:101AA000789484B5826084BD84B5816084BD85B539
:101AB000826085BD85B5816085BD80916E00816045
:101AC00080936E00109281008091810082608093EB
:101AD00081008091810081608093810080918000ED
:101AE000816080938000809191008260809391005A
:101AF000809191008160809391008091900081603D
:101B0000809390008091C10084608093C100809197
:101B1000C10082608093C1008091C1008160809388
:101B2000C1008091C30081608093C3008091C00098
:101B300082608093C0008091C20081608093C20067
:101B400080917A00846080937A0080917A0082602C
:101B500080937A0080917A00816080937A008091EE
:101B60007A00806880937A0010920C021092FC0137
:101B70001092FE018091D70081608093D70080EAA7
:101B80008093D80089B5806189BD89B5826089BD9F
:101B900009B400FEFDCF0E9421038091D8008F7C04
:101BA00080618093D8008091E000807F8093E00086
:101BB0008091E1008E7E8093E1008DE08093E200D1
:101BC000559A209A8091D501811105C081E08093BA
:101BD000D5010E947705C8ECD0E000E010E0FF24BA
:101BE000F3948091D401811104C0F092D4010E9439
:101BF0003105D0938B00C0938A002A98229A809155
:101C0000D401811104C0F092D4010E943105D09317
:101C10008900C09388002998219A8091D50181116B
:101C200004C0F092D5010E947705F8946091D60126
:101C30007091D7011092D7011092D60178948091BB
:101C4000EC019091ED01680F791F7093ED016093A5
:101C5000EC01072E000C880B990B0E94980F24E1D1
:101C60003EE643E654E40E94240F6093E80170933B
:101C7000E9018093EA019093EB012FB7F8948091EA
:101C8000EF019091F001A091F101B091F2012FBF0D
:101C90004091E4015091E5016091E6017091E70106
:101CA0005C016D01A41AB50AC60AD70AB601A501DE
:101CB0004A3051056105710590F18093E4019093DC
:101CC000E501A093E601B093E7018090E8019090D0
:101CD000E901A090EA01B090EB012091DC01309184
:101CE000DD014091DE015091DF01C501B4010E9488
:101CF000B70E20E030E048EC52E40E9424106093DC
:101D0000E0017093E1018093E2019093E3018092FE
:101D1000DC019092DD01A092DE01B092DF012DED99
:101D20003EE74CE351E46091E0017091E101809164
:101D3000E2019091E3010E9424106093D801709316
:101D4000D9018093DA019093DB018FB7F894409129
:101D5000EF015091F0016091F1017091F2018FBF9C
:101D60000115110509F43DCF0E9400003ACF5058EB
:101D7000BB27AA270E94CF0E0C94EA0F0E94DC0F0B
:101D800038F00E94E30F20F039F49F3F19F426F455
:101D90000C94D90F0EF4E095E7FB0C94D30FE92FC8
:101DA0000E94FB0F58F3BA17620773078407950761
:101DB00020F079F4A6F50C941D100EF4E0950B2E8E
:101DC000BA2FA02D0B01B90190010C01CA01A0018D
:101DD0001124FF27591B99F0593F50F4503E68F1E8
:101DE0001A16F040A22F232F342F4427585FF3CF29
:101DF000469537952795A795F0405395C9F77EF4FA
:101E00001F16BA0B620B730B840BBAF09150A1F042
:101E1000FF0FBB1F661F771F881FC2F70EC0BA0FC8
:101E2000621F731F841F48F4879577956795B79550
:101E3000F7959E3F08F0B0CF9395880F08F099274B
:101E4000EE0F9795879508950E94380F0C94EA0F2E
:101E50000E94E30F58F00E94DC0F40F029F45F3F2E
:101E600029F00C94D30F51110C941E100C94D90F1F
:101E70000E94FB0F68F39923B1F3552391F3951B4F
:101E8000550BBB27AA2762177307840738F09F5F9B
:101E90005F4F220F331F441FAA1FA9F335D00E2E08
:101EA0003AF0E0E832D091505040E695001CCAF775
:101EB0002BD0FE2F29D0660F771F881FBB1F261738
:101EC00037074807AB07B0E809F0BB0B802DBF010F
:101ED000FF2793585F4F3AF09E3F510578F00C94DE
:101EE000D30F0C941E105F3FE4F3983ED4F3869515
:101EF00077956795B795F7959F5FC9F7880F911DFF
:101F00009695879597F90895E1E0660F771F881FEA
:101F1000BB1F621773078407BA0720F0621B730B9D
:101F2000840BBA0BEE1F88F7E0950895E89409C07A
:101F300097FB3EF490958095709561957F4F8F4FFC
:101F40009F4F9923A9F0F92F96E9BB279395F69512
:101F5000879577956795B795F111F8CFFAF4BB0F90
:101F600011F460FF1BC06F5F7F4F8F4F9F4F16C0F4
:101F7000882311F096E911C0772321F09EE8872F7E
:101F8000762F05C0662371F096E8862F70E060E03A
:101F90002AF09A95660F771F881FDAF7880F9695B3
:101FA000879597F9089597F99F6780E870E060E05A
:101FB00008959FEF80EC089500240A9416161706E2
:101FC00018060906089500240A941216130614062A
:101FD00005060895092E0394000C11F4882352F08D
:101FE000BB0F40F4BF2B11F460FF04C06F5F7F4F45
:101FF0008F4F9F4F089557FD9058440F551F59F02C
:102000005F3F71F04795880F97FB991F61F09F3FE5
:1020100079F087950895121613061406551FF2CF0E
:102020004695F1DF08C0161617061806991FF1CF5E
:1020300086957105610508940895E894BB27662785
:102040007727CB0197F908950E9437100C94EA0F77
:102050000E94DC0F38F00E94E30F20F0952311F06E
:102060000C94D30F0C94D90F11240C941E100E94C1
:10207000FB0F70F3959FC1F3950F50E0551F629FC2
:10208000F001729FBB27F00DB11D639FAA27F00DD1
:10209000B11DAA1F649F6627B00DA11D661F829FF8
:1020A0002227B00DA11D621F739FB00DA11D621FDD
:1020B000839FA00D611D221F749F3327A00D611DFA
:1020C000231F849F600D211D822F762F6A2F1124DC
:1020D0009F5750409AF0F1F088234AF0EE0FFF1F0F
:1020E000BB1F661F771F881F91505040A9F79E3F66
:1020F000510580F00C94D30F0C941E105F3FE4F355
:10210000983ED4F3869577956795B795F795E795BB
:102110009F5FC1F7FE2B880F911D9695879597F9C4
:102120000895DB018F939F930E941711BF91AF9188
:10213000A29F800D911DA39F900DB29F900D112421
:102140000895991B79E004C0991F961708F0961B13
:10215000881F7A95C9F780950895AA1BBB1B51E18A
:1021600007C0AA1FBB1FA617B70710F0A61BB70B07
:10217000881F991F5A95A9F780959095BC01CD01AC
:102180000895A1E21A2EAA1BBB1BFD010DC0AA1FB8
:10219000BB1FEE1FFF1FA217B307E407F50720F0D0
:1021A000A21BB30BE40BF50B661F771F881F991F4B
:1021B0001A9469F760957095809590959B01AC0194
:1021C000BD01CF010895052E97FB1EF400940E94D7
:1021D000FA1057FD07D00E94C11007FC03D04EF43F
:1021E0000C94FA1050954095309521953F4F4F4FE4
:1021F0005F4F089590958095709561957F4F8F4FB3
:102200009F4F0895EE0FFF1F0590F491E02D099464
:10221000A29FB001B39FC001A39F700D811D112427
:10222000911DB29F700D811D1124911D08950E9472
:102230000811A59F900DB49F900DA49F800D911D36
:0822400011240895F894FFCF6A
:102248000F00F401D00704000401BA03BA03BA036B
:10225800BA03BA03FFFFFFFF00E10000000000001F
:102268009C01B501CF01EA01070226024702690273
:102278008E02B502DE020A0300C180810000000060
:102288000000004501390366015B01AC016A018861
:02229800010043
:00000001FF
