:100000000C94C4010C94A80D0C94810D0C945A0D01
:100010000C94330D0C94EC010C94EC010C940C0D2D
:100020000C94EC010C9482130C94CF0D0C943E0EA6
:100030000C94EC010C94EC010C94EC010C94EC018C
:100040000C94EC010C94EC010C94EC010C94EC017C
:100050000C94EC010C94EC010C94EC010C94C20C8B
:100060000C94EC010C94EC010C94EC010C94EC015C
:100070000C94EC010C94EC010C94EC010C94EC014C
:100080000C94EC010C94EC010C94EC010C94EC013C
:100090000C9470100C94EC010C94EC010C94EC0199
:1000A0000C94EC010C948B110C94EC0100000000FA
:1000B0000000004F00000007000700147F147F14A9
:1000C000242A7F2A122313086462364955225000DD
:1000D00000070000001C2241000041221C001408FF
:1000E0003E081408083E08080050300000080808C0
:1000F0000808006060000020100804023E514945D5
:100100003E00427F400042615149462141454B310A
:100110001814127F1027454545393C4A4949300398
:10012000017109073649494936064949291E0036F1
:100130003600000056360000081422410014141442
:100140001414004122140802015109063249794170
:100150003E7E1111117E7F494949363E414141227F
:100160007F4141413E7F494949417F090909013E9B
:100170004149497A7F0808087F00417F41002040BB
:10018000413F017F081422417F404040407F020CE4
:10019000027F7F0408107F3E4141413E7F090909EB
:1001A000063E4151215E7F09192946464949493198
:1001B00001017F01013F4040403F1F2040201F3F81
:1001C0004038403F63140814630708700807615102
:1001D000494543007F41410002040810200041418D
:1001E0007F0004020102044040404040000102043C
:1001F0000020545454787F484444383844444420C0
:10020000384444487F3854545418087E0901020C7D
:100210005252523E7F0804047800447D4000204042
:10022000443D007F1028440000417F40007C0418BA
:1002300004787C0804047838444444387C1414144A
:1002400008081414187C7C080404084854545420EA
:10025000043F4440203C4040207C1C2040201C3C6B
:100260004038403C44281028440C5050503C4464D2
:10027000544C44000836410000007F000000413625
:1002800008000C02040806081C2A080800030C0FCA
:1002900030333C3FC0C3CCCFF0F3FCFF080B00026F
:1002A000020200000904000001020200000524000F
:1002B00010010524010101042402060524060001A1
:1002C0000705810310004009040100020A00000034
:1002D00007050202400000070583024000000403F6
:1002E000090412010002EF020140FB1F002300017C
:1002F00001020301506F6C6F6C7520436F72706F59
:10030000726174696F6E00506F6C6F6C7520412D57
:100310005374617220333255340000000000250010
:1003200028002B002E0031000404040404030405FB
:100330000202020204030202020206060606060682
:100340000404020202040404080201104080401068
:1003500020408040800802040180402010020110EB
:100360008010204040200000000200090F00000320
:100370000401000C0000000000000000000000006C
:10038000000000000000001411241FBECFEFDAE0CF
:10039000DEBFCDBF11E0A0E0B1E0E2E9F3E302C0CF
:1003A00005900D92AC3BB107D9F723E0ACEBB1E07F
:1003B00001C01D92AD3BB207E1F711E0C4ECD1E002
:1003C00004C02197FE010E949719C33CD107C9F7C9
:1003D0000E943B140C94C7190C9400005B9887FD95
:1003E0005D9A87FF5D985B9A5B9886FD5D9A86FFB4
:1003F0005D985B9A5B9885FD5D9A85FF5D985B9A39
:100400005B9884FD5D9A84FF5D985B9A5B9883FDA1
:100410005D9A83FF5D985B9A5B9882FD5D9A82FF8F
:100420005D985B9A5B9881FD5D9A81FF5D985B9A10
:100430005B9880FD5D9A80FF5D985B9A0895FC0152
:1004400080918402882311F13FB7F89482E0809371
:10045000E9002091F200822F90E01816190614F49A
:1004600081E090E0882339F0289844E640938302A5
:100470004091F1004083222339F02091F2002111B4
:1004800003C02BE62093E8003FBF08958FEF9FEF56
:1004900008952FB7F89483E08093E9009091E800E5
:1004A000892F807295FF04C09091F20080E4891B2F
:1004B0002FBF089580917B0281110DC082E080934F
:1004C000770284E08093780210927A021092790287
:1004D00081E080937B0287E792E00895282F30E047
:1004E000F901EA59FC4F9491F901E95BFC4F8491C1
:1004F000285D3C4FF9012491222309F430C099234F
:10050000E9F091509F30D0F4E92FF0E0E657FD4F2D
:100510000C949719B802BC029902B002B4029E0270
:100520009E029E02BF02C502C902CD02D3029E02F4
:10053000D702909180009F7790938000E22FF0E0A7
:10054000EE0FFF1FE65EFC4FA591B4919FB7F894A4
:10055000EC91611132C080958E238C939FBF0895DA
:10056000909180009F7DE8CF90918000977FE4CFAD
:1005700094B59F7794BDE2CF94B59F7DFBCF9091CA
:1005800090009F7790939000D9CF909190009F7D9D
:10059000F9CF90919000977FF5CF9091C0009F7711
:1005A0009093C000CBCF9091C0009F7DF9CF9091E8
:1005B000C200977F9093C200C1CF8E2BCECF3FB7A2
:1005C000F8948091730290917402A0917502B09199
:1005D000760226B5A89B05C02F3F19F00196A11DF4
:1005E000B11D3FBFBA2FA92F982F8827BC01CD017D
:1005F000620F711D811D911D42E0660F771F881FDC
:10060000991F4A95D1F70895CF92DF92EF92FF920A
:100610000E94DF026B017C010E94DF026C197D09E0
:100620008E099F09683E734081059105A8F3FF90EC
:10063000EF90DF90CF90089508954091400250913F
:10064000410220913E0230913F0242175307B4F419
:100650009091E8009570E1F39091E80092FD19C047
:100660008093F100809140029091410201968F7336
:100670009927892B19F48EEF8093E800809140022E
:10068000909141020196909341028093400281E053
:10069000089580E00895DF92EF92FF920F931F93E9
:1006A000CF93DF93D82E8A01EB017B01E40EF51E78
:1006B000CE15DF0559F0D7FE12C0FE0184910E94CD
:1006C0001D0321968111F4CF0FEF1FEFC801DF91B9
:1006D000CF911F910F91FF90EF90DF900895888147
:1006E000EECF0F931F93CF93DF931F92CDB7DEB75B
:1006F00082E0898342E450E06CE972E080E80E9485
:100700004B030E945A02DC0112960D911C910115B7
:10071000110589F0D801ED91FC910280F381E02D63
:10072000BE016F5F7F4FC801099597FD04C0F801B6
:1007300000851185ECCF89810F90DF91CF911F91BA
:100740000F910895615030F02091F100FC01208359
:100750000196F8CF289884E68093830208958F92BB
:100760009F92AF92BF92CF92DF92EF92FF920F9340
:100770001F93CF93DF936C017B018A018091150158
:10078000882309F458C080918402882309F453C057
:100790008091440280FF05C08091E00082608093D8
:1007A000E000E801B12C8AEFA82E93E0892E2AE31D
:1007B000922E209711F4BB20B9F10E9449028111B9
:1007C00006C0AA94AA20B9F10E940403F2CF8C17A4
:1007D0001D0611F00CF08C2F9FB7F8948092E90061
:1007E0002091E80025FD02C09FBFE3CF282F30E015
:1007F000C21BD30BF701815020F041914093F100CF
:10080000FACFE20EF31EBB2021F09092E800B12C4B
:10081000EBCF8091E80085FDE7CF9092E800BB2404
:10082000B394209709F3F3CF5D9884E68093430255
:10083000101611063CF081E090E0F601938382836C
:1008400010E000E0C801DF91CF911F910F91FF9060
:10085000EF90DF90CF90BF90AF909F908F900895D2
:10086000CF93DF931F92CDB7DEB76983DC01ED91A3
:10087000FC910280F381E02D41E050E0BE016F5F0A
:100880007F4F09950F90DF91CF91089583E080937A
:10089000E9008091F200882319F08AE38093E80050
:1008A00008950E94490290E00895CF93DF931F922C
:1008B000CDB7DEB7FC018485958597FD08C02FEF85
:1008C0003FEF358724870F90DF91CF910895CE01B8
:1008D00001960E941F02019719F4898190E0F3CFDD
:1008E0008FEF9FEFF0CF0F931F93CF93DF931F9264
:1008F000CDB7DEB78C01FC018485958597FF0BC0D1
:10090000CE0101960E941F02019771F4898190E047
:10091000F80195878487F801848595850F90DF918C
:10092000CF911F910F9108958FEF9FEFF1CFFC01B1
:100930008485958597FD0BC09FB7F89482E08093DE
:10094000E9008091F2009FBF90E0019608959FB763
:10095000F89482E08093E9008091F2009FBF90E0DC
:1009600008952091F401260F3327331F21323105DA
:10097000ECF420911802FC0190E080E0243069F052
:1009800082E00895A091F4012191AC014C525E4F98
:10099000A40FB52FB11D2C930196861798F3809163
:1009A000F401680F6093F40180E0089581E00895F8
:1009B00008958FEF9FEF08958FEF9FEF0895809137
:1009C000CD0190E09195819591090895CF93DF93A2
:1009D000CB01EA01642F0E94B104CE01DF91CF91D7
:1009E0000895CF93DF931F92CDB7DEB7698361E09F
:1009F000CE0101960E94B10481E090E00F90DF915A
:100A0000CF9108958091CA01E091CB01F091CC0182
:100A1000882339F084919FEB980F9A3120F4805EFF
:100A200008958081F8CF803269F42091CB01309114
:100A3000CC01A9014F5F5F4F5093CC014093CB0194
:100A4000232B01F708951F93CF93DF930E94020594
:100A5000D0E0C0E01AE090ED980F9A30B8F41C9FF7
:100A600090011D9F300D1124E901C80FD11D87FD94
:100A7000DA95E0978091CB019091CC01019690930B
:100A8000CC018093CB010E940205E5CFCE01DF911E
:100A9000CF911F9108953F924F925F926F927F92F4
:100AA0008F929F92AF92BF92CF92DF92EF92FF927E
:100AB0000F931F93CF93DF937B01D42E2091C70117
:100AC00021111BC021E02093C701109272001092E7
:100AD000C00034E03093C10039E03093C20020936D
:100AE000C30023E02093BF0028EE2093D100109292
:100AF000BF001092D200579A789410920901CC242A
:100B0000C39497FF03C09F77AAE0CA2EC8E2CC9E89
:100B1000C02D1124D0E08C179D0750F021E0EC018E
:100B2000C21206C0C13187E2D80710F0C0E1D7E297
:100B30004E01B12CA12C4C2C512C712C612C9E01FE
:100B4000AFEFB7E00E949D19640D751D861D971DBE
:100B50009695879577956795A30192010E945619FE
:100B600060E072E18AE790E0312C339462177307FA
:100B70008407950728F09695879577956795F5CF23
:100B8000A30192010E9426199E0136952795620FB6
:100B9000731F811D911DA50194010E945619722E8B
:100BA000022F132F2AE0C21207C0CE0105966AE079
:100BB00070E00E944219EB01C83E83E0D80759F06B
:100BC0009701DE010E949D1928EE33E040E050E0DD
:100BD0000E9478197901109272008091C100807F83
:100BE00083298093C1001093BF007092D1004D2DD6
:100BF000403108F04FE080E190E0841B910902C091
:100C0000169507958A95E2F71093BF000093D200DE
:100C1000F092C901E092C80189B38FEF89BB84E0EB
:100C200080937200DF91CF911F910F91FF90EF9011
:100C3000DF90CF90BF90AF909F908F907F906F90FC
:100C40005F904F903F9008952E98269A2D98259A60
:100C50002A98229A2998219A80EA8093800081E13B
:100C60008093810080E991E09093870080938600D3
:100C7000109289001092880010928B0010928A00C6
:100C800008959FB191708CB186FB882780F98927E0
:100C90002091C0013091BF014091BD015091BE0132
:100CA00028273927231B330B240F351F3093BE0110
:100CB0002093BD013091BF012091C001381729F068
:100CC000291719F021E02093BC018093BF01909374
:100CD000C001089524982C9A6A98729A6E98769A10
:100CE0008098889A81E08093680090E190936B00EF
:100CF0008BBB81E496E090931F0180931E01EAE68E
:100D0000F0E080818F7C80618083EE9A8CB182FBE1
:100D1000882780F98093C30193B18091C301929594
:100D2000917089278093C201109249021092480263
:100D30001092C1018FB181708093C0019CB18091EC
:100D4000C00196FB992790F989278093BF011092E3
:100D5000BE011092BD011092BC010895289A209AFC
:100D600008952898209A08955F926F927F928F92AB
:100D70009F92AF92BF92CF92DF92EF92FF920F932A
:100D80001F93CF93DF935C01D62FC42FF22E132F26
:100D90000E94B1068D2F806B0E94EE018C2F8295F0
:100DA0008F7080610E94EE018C2F8F700E94EE0187
:100DB0000E94AE06CF2DD12F0C0F1D2F111D95E0D7
:100DC000692EC017D10709F444C07990872D80524D
:100DD000990B9C01629EC001639E900D1124769C2C
:100DE00040011124F12CE12C9C0124553F4F690155
:100DF0003FE1371508F5F601EE0DFF1DE491F0E037
:100E000084E0F595E7958A95E1F7E457FD4F549016
:100E1000852D0E94EE01852D0E94EE019FEFE91ABB
:100E2000F90A25E0E216F10419F780E00E94EE01CC
:100E300080E00E94EE01C5CF87E0E0E08715F8F280
:100E4000F401EE0DFF1DE254FF4FEA0DFB1DE081A2
:100E5000D6CFDF91CF911F910F91FF90EF90DF9050
:100E6000CF90BF90AF909F908F907F906F905F904A
:100E700008955F926F927F928F929F92AF92BF92EE
:100E8000CF92DF92EF92FF920F931F93CF93DF9356
:100E90005C01D62FC42FF22E132F0E94B1068D2F86
:100EA000806B0E94EE018C2F82958F7080610E9472
:100EB000EE018C2F8F700E94EE010E94AE06CF2DA6
:100EC000D12F0C0F1D2F111D85E0682EC017D107E3
:100ED00009F440C07990872D8052990B9C01629E45
:100EE000C001639E900D1124769C40011124F12CC9
:100EF000E12C9C0124553F4F69013FE13715E8F48F
:100F0000F601EE0DFF1DE491EF70F0E0E457FD4FA8
:100F10005490852D0E94EE01852D0E94EE019FEFD9
:100F2000E91AF90A25E0E216F10439F780E00E9497
:100F3000EE0180E00E94EE01C9CF87E0E0E0871576
:100F400018F3F401EE0DFF1DE254FF4FEA0DFB1DF7
:100F5000E081DACFDF91CF911F910F91FF90EF9059
:100F6000DF90CF90BF90AF909F908F907F906F90C9
:100F70005F9008956F927F928F929F92AF92BF92EF
:100F8000CF92DF92EF92FF920F931F93CF93DF9355
:100F90005C01D62FC42FF22E132F0E94B1068D2F85
:100FA000806B0E94EE018C2F82958F7080610E9471
:100FB000EE018C2F8F700E94EE010E94AE06CF2DA5
:100FC000D12F0C0F1D2F111D85E0682EC017D107E2
:100FD000A9F17990872D8052990B9C01629EC001E6
:100FE000639E900D1124769C40011124F12CE12C7C
:100FF0009C0124553F4F69013FE1371588F4F60104
:10100000EE0DFF1D84910E94EE019FEFE91AF90A8F
:1010100025E0E216F10481F780E00E94EE01D6CFD0
:1010200087E0871548F0F701E80DF91DE254FF4FFE
:10103000EA0DFB1D8081E7CF80E0E5CFDF91CF9106
:101040001F910F91FF90EF90DF90CF90BF90AF90E6
:101050009F908F907F906F900895FC01208121FBDD
:101060000EF0559820FB0EF05D980EF45D9A21FB72
:101070000EF4559A218121FB0EF0209820FB0EF0F2
:1010800028980EF4289A21FB0EF4209AA9EEB0E0DD
:101090001C9284818093F00083818C938281809361
:1010A000E2000895FC01A2EEB0E08C9182831C92D4
:1010B000A9EEB0E08C9183831C92A0EFB0E08C91FC
:1010C00084831C9220E05D992160559922602083E1
:1010D00020E0289921602099226021835D98559A0B
:1010E0000895CF92DF92EF92FF920F93CF93DF9309
:1010F000EC017C0184E0E80EF11CC7010E9452085B
:101100006E0184E1C80ED11C08E0960143E162E063
:10111000CE010E943907960143E163E0CE010E94AF
:10112000B4066E0189E2C80ED11C960143E165E068
:10113000CE010E943907960143E166E0CE010E948C
:10114000B406C701DF91CF910F91FF90EF90DF9030
:10115000CF900C942D08EF92FF920F93CF93DF93D3
:10116000EC017C0184E0E80EF11CC7010E945208EA
:101170009E012C5E3F4F05E142E060E0CE010E94FF
:10118000BA079E01275D3F4F42E061E0CE010E9419
:10119000BA079E01225C3F4F42E062E0CE010E940E
:1011A000BA079E012D5A3F4F42E063E0CE010E94F4
:1011B000BA079E0128593F4F42E064E0CE010E94E9
:1011C000BA079E0123583F4F42E065E0CE010E94DE
:1011D000BA079E012E563F4F42E066E0CE010E94C4
:1011E000BA079E0129553F4F42E067E0CE010E94B9
:1011F000BA07C701DF91CF910F91FF90EF900C9448
:101200002D08EF92FF920F931F93CF93DF938C01E2
:101210007C0184E0E80EF11CC7010E9452080E9484
:10122000B10682E00E94EE01C0E00E94B1068C2F60
:10123000806B0E94EE0180E10E94EE010E94AE06EA
:10124000D0E080E00E94EE01DF5FD038D1F7CF5FC1
:10125000C83059F7C7010E942D08F8011286DF91A6
:10126000CF911F910F91FF90EF900895AF92BF9291
:10127000CF92DF92EF92FF920F931F93CF93DF9362
:101280007C01122F683008F043C0423008F040C0A3
:1012900088E0861B8217D0F12223D1F1C42FCC0F16
:1012A000C40FDCE06D9FD02D1124DD5E670124E1C9
:1012B000C20ED11C862F90E025E1429F800D911D2A
:1012C0001124C80ED91E570184E0A80EB11CC50117
:1012D0000E94520862E06C0F012F96014D2FC7014A
:1012E0000E94390763E06C0F96014D2FC7010E94E1
:1012F000B406C501DF91CF911F910F91FF90EF9040
:10130000DF90CF90BF90AF900C942D08182FC6CFD0
:10131000DF91CF911F910F91FF90EF90DF90CF90D1
:10132000BF90AF900895BF92CF92DF92EF92FF925D
:101330000F931F93CF93DF93EC01162FB42E022F40
:10134000653198F527E0241780F185E1861B801729
:1013500050F1002351F1CE014496E12EF12C25E10C
:10136000B29EE00CF11C1124E80EF91E6E0184E01F
:10137000C80ED11CC6010E945208412F440F410FD4
:10138000440F4E5F97016B2DCE010E94BA07C60134
:10139000DF91CF911F910F91FF90EF90DF90CF9051
:1013A000BF900C942D08082FD6CFDF91CF911F91BD
:1013B0000F91FF90EF90DF90CF90BF900895089528
:1013C00090E080E00895FB0101900020E9F731975B
:1013D000AF01461B570BDC01ED91FC910280F381BC
:1013E000E02D09948F929F92AF92BF92EF92FF925D
:1013F0000F931F93CF93DF93CDB7DEB7A1970FB6AF
:10140000F894DEBF0FBECDBF7C01FA01CB0119A25B
:10141000223008F42AE08E010F5D1F4F822E912C9E
:10142000B12CA12CBF01A50194010E945619F9010C
:10143000CA016A300CF5605DD8016E938D01232BD3
:10144000242B252B79F790E080E0109721F0BD0147
:10145000C7010E94E309A1960FB6F894DEBF0FBE44
:10146000CDBFDF91CF911F910F91FF90EF90BF9073
:10147000AF909F908F900895695CDECFBC0185EDA1
:1014800092E00C94E3092F923F924F925F926F92F9
:101490007F928F929F92AF92BF92CF92DF92EF9204
:1014A000FF921F93CF93DF93EC016A017B01722EB1
:1014B000AB019601CB01B6010E9421196DE571E0E7
:1014C000811126C046015701E894B7F82FEF3FEF8E
:1014D0004FE75FE7C501B4010E94211981110CC0DB
:1014E0002FEF3FEF4FE75FE7C501B4010E945717A9
:1014F00061E671E0181664F02FEF3FEF4FE75FE40D
:10150000C701B6010E94AF181816B4F465E671E081
:10151000CE01DF91CF911F91FF90EF90DF90CF90A0
:10152000BF90AF909F908F907F906F905F904F9003
:101530003F902F900C94E3092FEF3FEF4FE75FECC4
:10154000C701B6010E94571787FDE0CF20E030E0C9
:10155000A901C701B6010E945717312C212C87FF22
:101560000DC0E881F9810190F081E02D6DE2CE019E
:1015700009951C01F7FAF094F7F8F09410E060E098
:1015800070E080E09FE3711641F020E030E040E23F
:1015900051E40E945C171F5FF6CFA70196010E94DD
:1015A000EB162B013C010E94CE174B015C012AE097
:1015B000BC01A401CE010E94F2097C01E20CF31CE3
:1015C0001123E1F1C501B4010E94FD179B01AC019B
:1015D000C301B2010E94EA164B015C01E881F98166
:1015E0000190F081E02D6EE2CE010995E80EF91E22
:1015F000115020F120E030E040E251E4C501B40197
:101600000E94B4182B013C010E94CE174B01B12C53
:10161000A12C2AE0B501A401CE010E94F209E80E36
:10162000F91EC501B4010E94FD179B01AC01C30165
:10163000B2010E94EA164B015C01DACFC701DF91CB
:10164000CF911F91FF90EF90DF90CF90BF90AF9020
:101650009F908F907F906F905F904F903F902F90D2
:1016600008951F93CF93DF9385ED8093BC00809105
:10167000D0019091D101A091D201B091D3010796F0
:10168000A11DB11D23E0B695A795979587952A953D
:10169000D1F72091BC0024FD03C01092180252C063
:1016A0004091D0015091D1016091D2017091D3014C
:1016B000452B462B472B69F30097A105B10541F057
:1016C0002AE22A95F1F700C00197A109B109E1CFFB
:1016D0008091CF01C1E0C093CE01882399F1D091D0
:1016E000B8001091BA008091BC008A7B8093BC0046
:1016F00060E082E00E946E0260E083E00E946E0281
:1017000010921802C0931A021092190261E082E04E
:101710000E946E0261E083E00E946E028091B90037
:101720008E7F8093B9008091B9008D7F8093B9003E
:1017300088E48093B80085E48093BC001093BA00DD
:10174000D093B800DF91CF911F9108950F931F930D
:10175000CF93DF93FC01218521112EC0EC015B9812
:10176000539A5A98529AF5E3FA95F1F700005A9A6B
:10177000529A85E38A95F1F70000CE010E94010993
:101780008E010C5F1F4FC8010E9452080E94B106D3
:1017900081EA0E94EE0188EC0E94EE0181E80E943D
:1017A000EE018FEF0E94EE018FEA0E94EE01C80168
:1017B0000E942D0881E08987DF91CF911F910F91C1
:1017C000089548EA50E060E270E089EE92E00E94FD
:1017D000C01910929103109292038091E00281113E
:1017E00026C085ED92E00E94A60B8091DF0288233F
:1017F00021F085ED92E00E9401092091E3023091F1
:10180000E402C901959587958B529D4FE091E102C5
:10181000F091E20220FF08C0DC012D913C91E20F23
:10182000F31F0190F081E02D09951092E0020895D8
:10183000FF920F931F93CF93DF93EC01162F042F8A
:10184000F22E0E94A60B8A85882319F0CE010E94F1
:1018500001092A893B89C901959587958C0F9D1FA0
:10186000E889F98920FF08C0DC012D913C91E20F45
:10187000F31F0190F081E02D2F2D402F612FDF917C
:10188000CF911F910F91FF900994CF93DF93DC01CB
:10189000A354BF4F2C91283008F5EC01C454DF4FFE
:1018A000E881E531D8F4AC0175E1279F400D511D69
:1018B0001124E40FF52FF11D648BFC012385211108
:1018C00005C021E04C9168810E94180C88818F5FCF
:1018D000888381E090E0DF91CF91089590E080E0EF
:1018E000FACFBF92CF92DF92EF92FF920F931F93A6
:1018F000CF93DF938C01EA016C012DEBC20ED11C5A
:10190000F60130813830D8F57C01FCEBEF0EF11C8C
:10191000F7018081853198F525E1281B90E0241797
:10192000150620F4C5E1D0E0C81BD90BF5E13F9FB7
:10193000800D911D1124AE0198012C5E3F4F820F46
:10194000931F0E94B719BC2EF8018385811108C02E
:101950002C2FF6014081F7016081C8010E94180C0C
:10196000F70180818B0D8083CE01DF91CF911F9194
:101970000F91FF90EF90DF90CF90BF900895D0E04F
:10198000C0E0F2CF1F920F920FB60F9211242F9347
:101990003F938F939F93AF93BF9380916F029091EA
:1019A0007002A0917102B091720230916E0223E038
:1019B000230F2D3758F50196A11DB11D20936E02FE
:1019C00080936F0290937002A0937102B0937202A1
:1019D0008091730290917402A0917502B091760289
:1019E0000196A11DB11D8093730290937402A09380
:1019F0007502B0937602BF91AF919F918F913F9105
:101A00002F910F900FBE0F901F90189526E8230F6F
:101A10000296A11DB11DD2CF1F920F920FB60F9249
:101A200011242F933F934F935F936F937F938F93E3
:101A30009F93AF93BF93EF93FF93E0911E01F091BB
:101A40001F010995FF91EF91BF91AF919F918F91E8
:101A50007F916F915F914F913F912F910F900FBEAA
:101A60000F901F9018951F920F920FB60F9211248E
:101A70002F933F934F935F936F937F938F939F9396
:101A8000AF93BF93EF93FF93E0911C01F0911D0181
:101A90000995FF91EF91BF91AF919F918F917F91A8
:101AA0006F915F914F913F912F910F900FBE0F90CB
:101AB0001F9018951F920F920FB60F9211242F931B
:101AC0003F934F935F936F937F938F939F93AF93C6
:101AD000BF93EF93FF93E0911A01F0911B010995D9
:101AE000FF91EF91BF91AF919F918F917F916F91F6
:101AF0005F914F913F912F910F900FBE0F901F90CC
:101B000018951F920F920FB60F9211242F933F93A7
:101B10004F935F936F937F938F939F93AF93BF93F5
:101B2000EF93FF93E0911801F09119010995FF914E
:101B3000EF91BF91AF919F918F917F916F915F9145
:101B40004F913F912F910F900FBE0F901F901895BE
:101B50001F920F920FB60F9211242F933F934F9322
:101B60005F936F937F938F939F93AF93BF93EF9305
:101B7000FF93E0911601F09117010995FF91EF9104
:101B8000BF91AF919F918F917F916F915F914F9195
:101B90003F912F910F900FBE0F901F9018951F929D
:101BA0000F920FB60F9211248F939F938091E100B3
:101BB0009091E100937F9093E10083FF0FC010921A
:101BC000E90091E09093EB001092EC0092E3909387
:101BD000ED001092840298E09093F00082FF22C002
:101BE00093E09093E9009091F200992319F09AE321
:101BF0009093E80090914302992341F09091430221
:101C0000915090934302911101C05D9A909183028B
:101C1000992341F090918302915090938302911106
:101C200001C0289A84FF18C08091E2008E7E8160F6
:101C30008093E2008091E1008F7E8093E1008091AB
:101C400044028E7E8061809344029F918F910F9019
:101C50000FBE0F901F90189580FFF7CF8091E20084
:101C60008E7E80618093E2008091E1008E7E809381
:101C7000E100809144028E7E8160E5CF1F920F9239
:101C80000FB60F921124CF92DF92EF92FF920F9333
:101C90001F932F933F934F935F936F937F938F93F4
:101CA0009F93AF93BF93EF93FF93CF93DF93CDB702
:101CB000DEB76C97DEBFCDBF1092E9008091E800DF
:101CC00083FF25C068E0CE0145960E94A20382EF03
:101CD0008093E8008D8987FF39C09091E80090FFDC
:101CE000FCCF982F907609F034C19E894F89588D8A
:101CF0002F89F88C911131C0803861F580914502AF
:101D00008093F1001092F1008EEF8093E8006C96C2
:101D10000FB6F894DEBF0FBECDBFDF91CF91FF911C
:101D2000EF91BF91AF919F918F917F916F915F9153
:101D30004F913F912F911F910F91FF90EF90DF9066
:101D4000CF900F900FBE0F901F9018959EEF90931D
:101D5000E800C7CF1092F100D5CF913059F481112E
:101D6000D3CF4130510581F6809145028D7F80931C
:101D70004502CACF933049F48111C6CF4130510595
:101D800019F6809145028260F2CF953041F480913E
:101D9000E80080FFFCCF20682093E300B5CF9630A9
:101DA00009F0A9C00B8D1C8D22E01092E900109261
:101DB000410210924002F2122EC010923F02109285
:101DC0003E020E9471031F8299E09983FA8291E09A
:101DD0009E8390EA98879AEF9987209140023091EC
:101DE0004102275F3F4F3C832B838D831092E90094
:101DF000109241021092400210933F0200933E0263
:101E000049E050E0BE016F5F7F4F80E00E944B03CE
:101E10000E94710379CF10933F0200933E020E940B
:101E20005A02DC0112960D911C910115110509F45D
:101E300051C1D801ED91FC910480F581E02DBE01E6
:101E40006B5E7F4FC8010995009709F03EC1F8010C
:101E500000851185EACFF3E0FF120EC08F89882339
:101E600009F440C0823061F440E862E187E093E029
:101E70000E94CD13811148CF81E28093EB0047CFC0
:101E8000813029F440E862E184EF92E0F1CF8330C1
:101E900099F70E945A02DC011296ED90FC908E0197
:101EA0000F5F1F4F6801E114F10479F0D701ED9144
:101EB000FC910680F781E02DB801C7010995080F54
:101EC000111DF701E084F184EECFD8011C92F601D8
:101ED00001900020E9F73197BF016C197D0940E0BE
:101EE000C601C6CF6EED72E0FB01449150E080E880
:101EF0000E944B0309CF973009F4BECF983021F4EC
:101F000081E08093F10000CF993009F0FDCE83701D
:101F100009F0B2CFE9E3F1E081E031E096E321910D
:101F2000222371F08093E9003093EB00DF011197D9
:101F30002C912093EC009093ED008F5F873079F720
:101F40008EE78093EA001092EA008F8980938402E2
:101F5000DBCE8B8D9C8D1092E90010924102109285
:101F6000400290933F0280933E02898D811192C07E
:101F70008E899D89913A49F4813209F07DCF47E0FD
:101F800050E06EE071E080E0B3CF913209F074CFA1
:101F9000833269F48F89988DB0E0A0E080930A01C4
:101FA00090930B01A0930C01B0930D01ADCE803244
:101FB00069F48091E80082FFFCCF67E08EE091E059
:101FC0000E94A2038BEF8093E8009ECE823209F03C
:101FD0009BCE8F8980931501EEEFFFE78591949159
:101FE0008B3F9C4D51F1E0E0F8E080910E01909123
:101FF0000F01A0911001B0911101803B9440A10507
:10200000B105F1F48091150180FD1AC0EE3F8AE020
:10201000F80789F587E797E79183808380916000CF
:102020008093420288E19BE00FB6F894A8958093D4
:1020300060000FBE9093600067CEEEEFFAE0D5CF60
:10204000808191818737974709F05ECEA89580916E
:1020500060008861809360008091420280936000FC
:10206000EE3F2AE0F20789F08091FE0A9091FF0A84
:102070009183808349CE808191818737980751F27F
:102080009093FF0A8093FE0AC5CF1092FF0A109228
:10209000FE0A3ACE0E945A02DC0112960D911C9162
:1020A0000115110509F4E8CED801ED91FC910190DC
:1020B000F081E02DBE016B5E7F4FC8010995811153
:1020C00023CEF80100851185EBCF181619060CF404
:1020D0001BCED2CEF1E0FF12BECE62EE72E004CF94
:1020E0001F920F920FB60F9211242F933F934F938D
:1020F0005F936F937F938F939F93AF93BF93EF9370
:10210000FF938091B900887F803609F44AC0F0F5CA
:10211000883209F4A5C018F5803109F499C0B8F4E3
:10212000882309F4F5C0883009F492C0FF91EF913B
:10213000BF91AF919F918F917F916F915F914F91DF
:102140003F912F910F900FBE0F901F9018958831DF
:1021500009F486C0803251F78093170214C080348E
:1021600009F49BC040F48033B9F38833F9F68093C7
:10217000170285ECAEC0803509F483C0883509F4B8
:1021800094C0883499F60E94310BD0CF883909F475
:102190008AC038F5883729F050F4883611F0803736
:1021A00029F683E0809318021092160255C08838F1
:1021B00009F479C0803919F0803809F0B7CF8091DF
:1021C0001602803208F06FC0E091160281E08E0F97
:1021D000809316028091BB00F0E0EA50FE4F8083AE
:1021E0003BC0803B39F0D0F4803A09F477C0883A9C
:1021F00009F09CCF84E0809318021092F5011092B0
:10220000F401F0E0E0E009958091F40181110FC044
:1022100081E08093F4011092D40109C0803C09F45C
:10222000A8CF883C09F4A5CF883B09F07FCFE09187
:10223000F50181E08E0F8093F501F0E0EC52FE4F46
:1022400080818093BB009091F5018091F40129C0B9
:1022500080913D028093BB0085EC8093BC0066CFEB
:1022600090913C0280913B02981758F5E0913C0216
:1022700081E08E0F80933C02F0E0E55EFD4F8081AF
:10228000E9CFE0913C0281E08E0F80933C02809187
:10229000BB00F0E0E55EFD4F808390913C028091B1
:1022A0003B029817C8F285E8D8CFE0913C0281E064
:1022B0008E0F80933C028091BB00F0E0E55EFD4F05
:1022C000808380911A0281115ECF81E08093190290
:1022D00084EA8093BC001092180228CF85EC80938A
:1022E000BC001092180280911602803230F4E09106
:1022F0001602F0E0EA50FE4F10826091160270E084
:1023000086EF91E0F0E0E0E00995109216020ECF22
:102310001092170238CF1F920F920FB60F9211240E
:102320004F925F926F927F928F929F92AF92BF92E5
:10233000CF92DF92EF92FF920F931F932F933F93D1
:102340004F935F936F937F938F939F93AF93BF93BD
:10235000CF93DF93EF93FF93C091C801D091C90150
:10236000CE0101979093C9018093C8012097A1F5F0
:102370001092720078948091C100807F8460809375
:10238000C10083E08093BF0088EE8093D10010925B
:10239000BF001092D20081E0809309018091CB01AF
:1023A0009091CC01892BC1F08091C601811114C09C
:1023B000709008018091C501882379F18091C40152
:1023C000882359F16091C40170E040E088EE93E009
:1023D0000E944B051092C401FF91EF91DF91CF91C4
:1023E000BF91AF919F918F917F916F915F914F912D
:1023F0003F912F911F910F91FF90EF90DF90CF9021
:10240000BF90AF909F908F907F906F905F904F9014
:102410000F900FBE0F901F9018955524539470EC99
:10242000A72E7DE5B72EEAE04E2EF4E06F2EA0ED4C
:10243000CA2EA7E0DA2EB4E0EB2EF12C04EF11E067
:102440008FE0882E912C0E9402052091CB013091C3
:10245000CC012F5F3F4F3093CC012093CB018536C9
:1024600009F473C00CF047C0813609F4B4C024F5F8
:102470008C3309F468C08E3309F463C0813209F0EB
:1024800043C060920801D0920501C0920401F0920D
:102490000701E0920601109303010093020190925C
:1024A0000101809200011092C50170900801809195
:1024B000020190910301C7CF833609F48FC010E069
:1024C0000BE0843614F010E002E04CE0749E000D46
:1024D00011240E940205982F977F933209F080C043
:1024E0008091CB019091CC0101969093CC01809387
:1024F000CB010F5FEECF8D3609F445C054F487361B
:1025000051F134F18C3651F11092CC011092CB0183
:1025100063CF823709F44CC044F48F36A9F70E9488
:102520002305782E809308018ECF843709F443C0A9
:10253000863751F70E942305909301018093000193
:1025400082CF739480CF7A947ECF10E004E0BDCF29
:1025500010E005E0BACF10E007E0B7CF0E942305F6
:1025600090930701809306018091040190910501E9
:1025700060910601709107010E9442197093030156
:102580006093020160CF0E9402058C3661F41092C4
:10259000C5018091CB019091CC0101969093CC0123
:1025A0008093CB0150CF5092C5011092C401F1CF5E
:1025B00011E000E08ACF0E942305BC01C5010E9402
:1025C0004219469EC001479E900D1124909305012B
:1025D00080930401C9CF10E009E077CF10E0E9CF84
:1025E0008D3269F48091CB019091CC01019690934A
:1025F000CC018093CB0101500E940205F1CFE09005
:102600000201F09003018153883058F4E0900401F6
:10261000F09005010E942305BC01C7010E944219E8
:102620007B016701D694C7940E9402058E3261F443
:102630008091CB019091CC0101969093CC01809335
:10264000CB01EC0CFD1CEECF8091C501882349F035
:10265000C701969587958093C4018091C401E81ABB
:10266000F108C0900001D0900101111104C00F3F8A
:1026700011F0C11007C040E0B70188EE93E00E945E
:102680004B05AACE013128F010EF100F103608F0DC
:102690001FE5812F6CE00E943619582F44EF450347
:1026A00090011124210F311D2C30310538F4220FF7
:1026B000331FF901E05EFE4FC081D1818730C1F048
:1026C000082E02C0CC0FDD1F0A94E2F7823040F0E2
:1026D000CE0105966AE070E00E944219CB0102C06B
:1026E000CE0190584C2D403108F04FE0B701C7CFD4
:1026F000CE0126E0880F991F2A95E1F7029665E042
:1027000070E0EACF1F920F920FB60F9211242F9311
:102710003F934F936F937F938F939F938CB1282F09
:1027200030E03595279535952795422F417083B137
:1027300090E064E0959587956A95E1F7822781702E
:102740002091C3019091C2016091480270914902A9
:1027500028279427291B330B260F371F3093490254
:10276000209348022091C2019091C301281729F0BB
:10277000941719F091E09093C1018093C2014093A6
:10278000C3019F918F917F916F914F913F912F91B5
:102790000F900FBE0F901F901895EF92FF920F931E
:1027A0001F93CF93DF93F82E192FE62E042F81E08D
:1027B000860F880F0E941D0383E00E941D03CF2D0A
:1027C000D12FEC0EFD2EF11CCE15DF05B9F007FF61
:1027D00013C0FE0184910E941D03182F80E00E9407
:1027E0001D03812321968111EFCFDF91CF911F919E
:1027F0000F91FF90EF9008958881EDCF81E0F5CFA4
:10280000CF93DF93E5E8F2E01382128288EE93E043
:10281000A0E0B0E084839583A683B78383E491E04E
:10282000918380838FEF9FEF95878487C5EDD2E0FA
:102830001B821A8248EA50E060E270E089EE92E082
:102840000E94C0191092BC031092BB0381E798E06C
:102850009D878C871F861E8686E399E0998B888BDF
:102860001B8A1A8A81E08A8785E591E099838883AB
:10287000DF91CF910895789484B5826084BD84B54A
:10288000816084BD85B5826085BD85B5816085BD6B
:1028900080916E00816080936E0010928100809123
:1028A00081008260809381008091810081608093AB
:1028B00081008091800081608093800080919100F0
:1028C000826080939100809191008160809391005B
:1028D000809190008160809390008091C10084601D
:1028E0008093C1008091C10082608093C10080917B
:1028F000C10081608093C1008091C300816080939A
:10290000C3008091C00082608093C0008091C200AB
:1029100081608093C20080917A00846080937A0005
:1029200080917A00826080937A0080917A00816041
:1029300080937A0080917A00806880937A00109268
:10294000840210924502109244028091D700816067
:102950008093D70080EA8093D80089B5806189BDD3
:1029600089B5826089BD09B400FEFDCF0E940403D1
:102970008091D8008F7C80618093D8008091E000A6
:10298000807F8093E0008091E1008E7E8093E10063
:102990008DE08093E200559A209A80914702811140
:1029A00005C081E0809347020E946A0685ED92E0AF
:1029B0000E94A60B0E94E10B1092BC031092BB0375
:1029C0008BEA98E09093E2028093E1021092E40295
:1029D0001092E30283E999E09093E6028093E50286
:1029E0001092E8021092E70281E08093DF028FEFFD
:1029F0009FEF909392028093910206E910E096E097
:102A0000492E27E0822E30E1732E4BE0642ED1E177
:102A100059E0552E63E0962E70E0A72E70E0B72E99
:102A2000C1E080914602811104C0C09346020E9419
:102A3000240610938B0000938A002A98229A809192
:102A40004602811104C0C09346020E9424061093DE
:102A50008900009388002998219A8091470281116A
:102A600004C0C09347020E946A06F894C0904802CE
:102A7000D0904902109249021092480278940D2C8D
:102A8000000CEE08FF0880916A0290916B02A09101
:102A90006C02B0916D02C80ED91EEA1EFB1EC092D8
:102AA0006A02D0926B02E0926C02F0926D02C70152
:102AB000B6010E94FD1724E13EE643E654E40E947D
:102AC0005C1760936602709367028093680290932C
:102AD00069022AE0B701A60185E892E00E94F209A6
:102AE00069E671E085E892E00E94E3092FB7F89467
:102AF00080916F0290917002A0917102B091720268
:102B00002FBF409162025091630260916402709104
:102B100065026C017D01C41AD50AE60AF70AB701FD
:102B2000A601443651056105710590F1809362025A
:102B300090936302A0936402B0936502C090660212
:102B4000D0906702E0906802F090690220915A02EA
:102B500030915B0240915C0250915D02C701B60169
:102B60000E94EA1620E030E040E251E40E94B418EE
:102B700060935E0270935F028093600290936102A3
:102B8000C0925A02D0925B02E0925C02F0925D0227
:102B90002BED3FE049E450E460915E0270915F02EA
:102BA00080916002909161020E94B41820E030E0B0
:102BB00040E750E40E94B4186093560270935702A5
:102BC000809358029093590220E030E040E750E4AF
:102BD000609166027091670280916802909169022B
:102BE0000E94B4182BED3FE049E450E40E94B41871
:102BF00020E030E048EC52E40E945C1760935202FF
:102C000070935302809354029093550220E030E079
:102C100040E251E40E945C1760934E0270934F02B1
:102C2000809350029093510210929103109292035C
:102C30008CE691E00E943E0A10929103C0939203A9
:102C4000409156025091570260915802709159027A
:102C500022E085ED92E00E94430A83E791E00E9422
:102C60003E0A109291034092920388E791E00E94FD
:102C70003E0A109291038092920340915202509129
:102C80005302609154027091550222E085ED92E06A
:102C90000E94430A82E891E00E943E0A70929103EA
:102CA0001092920384E891E00E943E0A60929103A0
:102CB000C09392038AE891E00E943E0AD093910368
:102CC000C093920380E991E00E943E0A50929103E2
:102CD00082E0F82EF092920384E991E00E943E0A8D
:102CE000D0939103F09292038CE991E00E943E0A06
:102CF0008AE0809391039092920380EA91E00E948F
:102D00003E0AD09391039092920387EA91E00E9449
:102D10003E0A2FB7F89480916F0290917002A091B3
:102D20007102B09172022FBF40914A0250914B0242
:102D300060914C0270914D026C017D01C41AD50A5C
:102D4000E60AF70AB701A60140315742610571054D
:102D5000D0F180934A0290934B02A0934C02B0931F
:102D60004D020E94E10B10929103109292038BEAA4
:102D700091E00E943E0A10929103C0939203409109
:102D80004E0250914F02609150027091510222E028
:102D900085ED92E00E94430A83E791E00E943E0A9B
:102DA00040914E0250914F02609150027091510239
:102DB00022E085E892E00E94430A69E671E085E836
:102DC00092E00E94E309A114B10409F42ACE0E9402
:102DD000000027CE5058BB27AA270E9402170C9448
:102DE00075180E94671838F00E946E1820F039F4A8
:102DF0009F3F19F426F40C9464180EF4E095E7FB59
:102E00000C945E18E92F0E94861858F3BA176207CF
:102E100073078407950720F079F4A6F50C94A81899
:102E20000EF4E0950B2EBA2FA02D0B01B9019001E5
:102E30000C01CA01A0011124FF27591B99F0593F29
:102E400050F4503E68F11A16F040A22F232F342F71
:102E50004427585FF3CF469537952795A795F040BF
:102E60005395C9F77EF41F16BA0B620B730B840BD4
:102E7000BAF09150A1F0FF0FBB1F661F771F881F8C
:102E8000C2F70EC0BA0F621F731F841F48F48795E4
:102E900077956795B795F7959E3F08F0B0CF9395D6
:102EA000880F08F09927EE0F9795879508950E944F
:102EB0003A1808F481E008950E9470170C94751870
:102EC0000E946E1858F00E94671840F029F45F3F86
:102ED00029F00C945E1851110C94A9180C946418E4
:102EE0000E94861868F39923B1F3552391F3951B3B
:102EF000550BBB27AA2762177307840738F09F5F1B
:102F00005F4F220F331F441FAA1FA9F335D00E2E87
:102F10003AF0E0E832D091505040E695001CCAF7F4
:102F20002BD0FE2F29D0660F771F881FBB1F2617B7
:102F300037074807AB07B0E809F0BB0B802DBF018E
:102F4000FF2793585F4F3AF09E3F510578F00C945D
:102F50005E180C94A9185F3FE4F3983ED4F386956D
:102F600077956795B795F7959F5FC9F7880F911D7E
:102F70009695879597F90895E1E0660F771F881F6A
:102F8000BB1F621773078407BA0720F0621B730B1D
:102F9000840BBA0BEE1F88F7E09508950E948E18F7
:102FA00088F09F5798F0B92F9927B751B0F0E1F00A
:102FB000660F771F881F991F1AF0BA95C9F714C0BA
:102FC000B13091F00E94A818B1E008950C94A818AF
:102FD000672F782F8827B85F39F0B93FCCF38695F3
:102FE00077956795B395D9F73EF490958095709550
:102FF00061957F4F8F4F9F4F0895E89409C097FBCD
:103000003EF490958095709561957F4F8F4F9F4FBF
:103010009923A9F0F92F96E9BB279395F695879503
:1030200077956795B795F111F8CFFAF4BB0F11F4C6
:1030300060FF1BC06F5F7F4F8F4F9F4F16C088236D
:1030400011F096E911C0772321F09EE8872F762FA3
:1030500005C0662371F096E8862F70E060E02AF0E4
:103060009A95660F771F881FDAF7880F96958795D0
:1030700097F90895990F0008550FAA0BE0E8FEEFA5
:1030800016161706E807F907C0F012161306E4072C
:10309000F50798F0621B730B840B950B39F40A2625
:1030A00061F0232B242B252B21F408950A2609F403
:1030B000A140A6958FEF811D811D089597F99F6707
:1030C00080E870E060E008959FEF80EC08950024B0
:1030D0000A941616170618060906089500240A947D
:1030E00012161306140605060895092E0394000C03
:1030F00011F4882352F0BB0F40F4BF2B11F460FF92
:1031000004C06F5F7F4F8F4F9F4F089557FD9058BA
:10311000440F551F59F05F3F71F04795880F97FB9B
:10312000991F61F09F3F79F0879508951216130655
:103130001406551FF2CF4695F1DF08C01616170684
:103140001806991FF1CF86957105610508940895B9
:10315000E894BB2766277727CB0197F908950E944B
:103160003A1808F48FEF08950E94C7180C94751848
:103170000E94671838F00E946E1820F0952311F015
:103180000C945E180C94641811240C94A9180E94D5
:10319000861870F3959FC1F3950F50E0551F629FFD
:1031A000F001729FBB27F00DB11D639FAA27F00DA0
:1031B000B11DAA1F649F6627B00DA11D661F829FC7
:1031C0002227B00DA11D621F739FB00DA11D621FAC
:1031D000839FA00D611D221F749F3327A00D611DC9
:1031E000231F849F600D211D822F762F6A2F1124AB
:1031F0009F5750409AF0F1F088234AF0EE0FFF1FDE
:10320000BB1F661F771F881F91505040A9F79E3F34
:10321000510580F00C945E180C94A9185F3FE4F3FC
:10322000983ED4F3869577956795B795F795E7958A
:103230009F5FC1F7FE2B880F911D9695879597F993
:1032400008950E943A18880B990B0895DB018F931B
:103250009F930E94AC19BF91AF91A29F800D911DC9
:10326000A39F900DB29F900D11240895991B79E0B2
:1032700004C0991F961708F0961B881F7A95C9F706
:1032800080950895AA1BBB1B51E107C0AA1FBB1F55
:10329000A617B70710F0A61BB70B881F991F5A95E2
:1032A000A9F780959095BC01CD010895A1E21A2E51
:1032B000AA1BBB1BFD010DC0AA1FBB1FEE1FFF1FDA
:1032C000A217B307E407F50720F0A21BB30BE40B2A
:1032D000F50B661F771F881F991F1A9469F7609571
:1032E0007095809590959B01AC01BD01CF0108952B
:1032F000052E97FB1EF400940E948F1957FD07D0EE
:103300000E94561907FC03D04EF40C948F19509567
:103310004095309521953F4F4F4F5F4F08959095C1
:103320008095709561957F4F8F4F9F4F0895EE0F59
:10333000FF1F0590F491E02D0994A29FB001B39F67
:10334000C001A39F700D811D1124911DB29F700DAE
:10335000811D1124911D08950E949D19A59F900D16
:10336000B49F900DA49F800D911D11240895FB0121
:10337000DC0102C001900D9241505040D8F70895F1
:10338000DC0101C06D9341505040E0F70895F8947E
:02339000FFCF6D
:103392000F00F401D00704000401FFFFFFFF00E16A
:1033A2000000000000001C031C031C031C031C0380
:1033B2009C01B501CF01EA01070226024702690218
:1033C2008E02B502DE020A0300C180810000000005
:1033D2000000003004AF03510446049704550473FF
:1033E2000400000000450C710CE009DF096E616EFB
:1033F20000696E66006F7666000D0A00537065659F
:10340200643A00636D2F730044697374616E63657F
:103412003A006D004D6F6E657900557365643A0030
:10342200346B72004561726E65643A00326B7200F1
:10343200546F74616C3A00376B7200536E69747426
:0C3442006861737469676865743A000083
:00000001FF
